:020000040800F2
:10000000E804002001010008E106000835050008A9
:10001000DD060008BF0300083B10000800000000D8
:10002000000000000000000000000000110A0008AD
:10003000C303000800000000A3080008250B000807
:100040001B0100081B0100081B0100081B01000820
:100050001B0100081B0100081B0100081B01000810
:100060001B0100081B0100081B0100081B01000800
:100070001B0100081B0100081B0100081B010008F0
:100080001B0100081B0100081B0100081B010008E0
:100090001B0100081B0100081B0100081B010008D0
:1000A0001B0100081B0100081B0100081B010008C0
:1000B0001B0100081B0100081B0100081B010008B0
:1000C0001B0100081B0100081B0100081B010008A0
:1000D0001B010008C50B00081B010008190D0008D2
:1000E0001B0100081B0100081B010008DFF80CD0F1
:1000F00000F02EF80048004791120008E8040020A4
:100100000648804706480047FEE7FEE7FEE7FEE7B1
:10011000FEE7FEE7FEE7FEE7FEE7FEE7650B000809
:10012000ED00000830B50B460146002020220124D6
:1001300009E021FA02F59D4205D303FA02F5491BB5
:1001400004FA02F52844151EA2F10102F1DC30BDCB
:10015000064C074D06E0E06840F0010394E8070014
:1001600098471034AC42F6D3FFF7C4FF0C130008D5
:100170002C13000821B1826842F00102826003E082
:10018000826822F0010282607047014600208A687E
:1001900002F004020AB1012000E00020704701468D
:1001A000C86C80B270470246002013680B400BB148
:1001B000012000E000207047014600208A6802F01C
:1001C00008020AB1012000E00020704730B5024665
:1001D0000020002350680F4C20400D790C6844EA41
:1001E00005242043506090680B4C2040D1E9025414
:1001F0002C434D7944EA450420439060D06A20F4B2
:1002000070000C7C641EE4B2234340EA0350D062C9
:1002100030BD0000FFFEF0FFFDF7F1FFF0B5044632
:100220000D4600200021092D11DDE068A5F10A0628
:1002300006EB4607072606FA07F18843A5F10A06EA
:1002400006EB460603FA06F10843E0600CE020697D
:1002500005EB4507072606FA07F1884305EB450637
:1002600003FA06F108432061072A0FDA606B561E75
:1002700006EB86071F2606FA07F18843561E06EB93
:10028000860605FA06F10843606322E00D2A0FDABC
:10029000206BD61F06EB86071F2606FA07F1884358
:1002A000D61F06EB860605FA06F10843206310E028
:1002B000E06AA2F10D0606EB86071F2606FA07F193
:1002C0008843A2F10D0606EB860605FA06F10843FF
:1002D000E062F0BD816841F008018160704721B1A2
:1002E000826842F4A002826003E0826822F4A002E5
:1002F00082607047816841F00401816070470000AE
:1003000000B587B001214FF4017000F0E7FA4FF417
:10031000004000F0C7FA0220ADF8180000208DF868
:100320001B0003208DF81A0006A9184800F04AF8AF
:10033000002001908DF808008DF809004FF460202E
:1003400003900020049001208DF8140001A91048AA
:10035000FFF73CFF01210E48FFF70CFF0C48FFF7A9
:10036000B9FF00BF0A48FFF727FF0028FAD1084865
:10037000FFF7C0FF00BF0648FFF707FF0028FAD1CC
:1003800001210348FFF7ABFF07B000BD00080140A3
:100390000024014010B500F085F9482000F0C4FBAE
:1003A0004FF4614000F026FC4FF4165000F0CCFCF6
:1003B00000F0C2F800F0F0F9FFF7A2FF10BD00BF97
:1003C000FEE770472DE9F041024600250026002097
:1003D00000230024002791F803C00CF00F0591F8CA
:1003E00003C00CF0100CBCF1000F03D091F802C058
:1003F0004CEA050591F800C0BCF1000F31D014683B
:1004000000202BE04FF0010C0CFA00F3B1F800C013
:100410000CEA03069E4220D183004FF00F0C0CFA29
:1004200003F7BC4305FA03FC4CEA040491F803C04B
:10043000BCF1280F06D14FF0010C0CFA00FCC2F8F9
:1004400014C00AE091F803C0BCF1480F05D14FF089
:10045000010C0CFA00FCC2F810C0401C0828D1D3D3
:100460001460B1F800C0BCF1FF0F34DD5468002007
:100470002EE000F1080C4FF0010808FA0CF3B1F877
:1004800000C00CEA03069E4221D183004FF00F0CFE
:100490000CFA03F7BC4305FA03FC4CEA040491F898
:1004A00003C0BCF1280F05D100F1080C08FA0CF8C4
:1004B000C2F8148091F803C0BCF1480F07D100F1D5
:1004C000080C4FF0010808FA0CF8C2F81080401C24
:1004D0000828CED35460BDE8F08101617047000068
:1004E0002DE9F04105460C46002607230122294646
:1004F0000F48FFF793FE002713E001210C48FFF798
:10050000EEFE00BF02210A48FFF74DFE0028F9D099
:100510000748FFF744FE0644052000F05BFE781C08
:10052000C7B2A742E9DBB6FBF4F080B2BDE8F081C8
:100530000024014000BFFEE708B50121082000F0BB
:10054000CDF94020ADF8000003208DF80200102006
:100550008DF8030069460848FFF734FF8020ADF8A6
:10056000000069460448FFF72DFF01200349086099
:100570000349C1F89C0108BD000C0140988121424B
:100580000080214210B500F031FA012009490860CD
:100590000949C1F89801052000F042FE00200549F4
:1005A0000860062000F03CFE00200349C1F89801D5
:1005B00010BD00009C8121420080214210B500F056
:1005C00015FA0020094908600949C1F89C01012079
:1005D00006490860062000F023FE01200449C1F806
:1005E0009C01062000F01CFE10BD000098812142F5
:1005F0000080214210B5002401200F49086000F05E
:100600000FFE00F0E5F901200C49C1F8980100F057
:1006100007FE07E0601CC4B2FA2C03DDFFF7CEFF33
:10062000012010BD0448803800680028F2D102493A
:10063000091F086000BFF4E79C812142008021422D
:1006400070B5044600F0D2F9002014490860002576
:1006500020E004F08000002804DD01200F49091D7E
:10066000086003E000200D49091D08606006040EC3
:10067000022000F0D5FD012008490860022000F0AA
:10068000CFFD00200649C1F89801022000F0C8FD06
:10069000681CC5B2082DDCDB70BD000098812142CA
:1006A0000080214208B50121102000F017F94FF415
:1006B0000050ADF8000010208DF8030003208DF8E5
:1006C000020069460448FFF77DFE4FF400510248DE
:1006D000FFF703FF08BD00000010014000BFFEE768
:1006E0007047000070B5002100230F22C47804B3C6
:1006F000154C246804F4E064C4F5E064210AC1F1F7
:100700000403CA40447804FA03F184781440214376
:1007100009010E4C0678A155047804F01F05012448
:10072000AC4005786D11AD0005F1E025C5F800413C
:1007300009E0047804F01F050124AC40044D06785C
:10074000761145F8264070BD0CED00E000E400E0B5
:1007500080E100E010B5002000F001F810BD70B598
:100760000646002415E004F1B001C8B200F06DF8AF
:10077000002000F06AF8102000F067F8002504E07F
:10078000304600F069F8681CC5B2802DF8DB601CAB
:10079000C4B2082CE7DB70BD10B5642000F01AFD70
:1007A000AE2000F052F8202000F04FF8102000F0AA
:1007B0004CF8B02000F049F8C82000F046F80020BE
:1007C00000F043F8102000F040F8402000F03DF821
:1007D000812000F03AF8FF2000F037F8A12000F067
:1007E00034F8A62000F031F8A82000F02EF83F20C1
:1007F00000F02BF8A42000F028F8D32000F025F812
:10080000002000F022F8D52000F01FF8F02000F0C2
:100810001CF8D92000F019F8222000F016F8DA2090
:1008200000F013F8122000F010F8DB2000F00DF8B3
:10083000202000F00AF88D2000F007F8142000F0C6
:1008400004F8AF2000F001F810BD10B504462146B1
:10085000002000F008F810BD10B5044621464020E5
:1008600000F001F810BD70B505460C46FFF78AFE92
:100870007820FFF7E5FEFFF7BDFE00B10EE0284649
:10088000FFF7DEFEFFF7B6FE00B107E02046FFF7F8
:10089000D7FEFFF7AFFE00B100E000BFFFF78EFE0E
:1008A00070BD704701460020034A506820F4404064
:1008B00008435060704700000010024029B1064A0A
:1008C000D2690243044BDA6104E0034AD2698243ED
:1008D000014BDA61704700000010024029B1064A5E
:1008E00092690243044B9A6104E0034A926982438D
:1008F000014B9A61704700000010024030B50021A2
:100900000022002400232D4D6D6805F00C0121B15B
:10091000042905D0082923D105E0294D056022E0EE
:10092000274D05601FE0254D6D6805F47012234DBD
:100930006D6805F48034022505EB92421CB9214D07
:10094000554305600BE01D4D6D6805F400351DB184
:100950001C4D5543056002E0194D5543056002E00A
:10096000174D056000BF00BF144D6D6805F0F00124
:100970000909154D6B5C0568DD4045600F4D6D68DC
:1009800005F4E061090A104D6B5C4568DD40856047
:100990000A4D6D6805F46051C90A0B4D6B5C4568E2
:1009A000DD40C560054D6D6805F44041890B074D7C
:1009B0006B5CC568B5FBF3F5056130BD0010024006
:1009C00000127A0000093D000800002018000020F5
:1009D00008B58020ADF8000048208DF80300694676
:1009E0000148FFF7EFFC08BD000C014008B580206E
:1009F000ADF8000003208DF8020010208DF80300F0
:100A000069460248FFF7DEFC08BD0000000C01400B
:100A1000704710B500F002F810BD00000CB50020C2
:100A2000019000903348006840F4803031490860FC
:100A300000BF3048006800F4003000900198401C6E
:100A40000190009818B90198B0F5A06FF1D129482C
:100A5000006800F4003010B10120009001E0002097
:100A600000900098012843D12348006840F010000E
:100A7000214908600846006820F003000860084625
:100A8000006840F0020008601A4840681949486050
:100A90000846406848600846406840F48060486006
:100AA0000846406820F47C1048600846406840F4DE
:100AB000E81048600846006840F08070086000BF99
:100AC0000C48006800F000700028F9D00948406820
:100AD00020F00300074948600846406840F00200E3
:100AE000486000BF0348406800F00C000828F9D1B6
:100AF0000CBD00000010024000200240042808D174
:100B00004FF0E021096941F004014FF0E02211614A
:100B100007E04FF0E021096921F004014FF0E022E5
:100B2000116170477047000010B504466FF0040073
:100B3000FFF7E4FFE11704EB5171C1F3C701074A66
:100B400011701046007800EB4001C1EBC0104FF669
:100B5000FF7101EAC0000249088010BD00000020BA
:100B60000200002010B51348006840F00100114950
:100B7000086008464068104908400E494860084629
:100B800000680E4908400B4908600846006820F4D8
:100B9000802008600846406820F4FE0048604FF45A
:100BA0001F008860FFF735FF4FF0006004490860C0
:100BB00010BD0000001002400000FFF8FFFFF6FE2D
:100BC00008ED00E010B540F22551094800F070F939
:100BD00048B100F08DF830B9054800F025FAC4B2EC
:100BE000204600F05FF84021014800F03FF910BDB9
:100BF0000038014010B586B0044601210420FFF7FB
:100C00006DFE01218803FFF769FE4FF40070ADF817
:100C1000140003208DF8160018208DF8170005A980
:100C20001E48FFF7CFFB4FF48060ADF8140004209E
:100C30008DF8170005A91948FFF7C4FB019400209F
:100C4000ADF80800ADF80A00ADF80C00ADF81000E2
:100C50000C20ADF80E0001A9114800F079F901212E
:100C60000F4800F00CF940210D4800F0FFF8012278
:100C700040F225510A4800F045F925208DF8000082
:100C800003208DF801008DF8020001208DF803008B
:100C90006846FFF727FD06B010BD000000080140C0
:100CA0000038014010B5044600F022F820B10AA037
:100CB00000F0C6F9012010BD0B480078401C6421EB
:100CC00090FBF1F201FB1200074908700748097810
:100CD00044540020EFE70000717565756520667566
:100CE0006C6C210A0000000004000020200000209D
:100CF00007480078401C642190FBF1F201FB1200D0
:100D000004490978884201D1012070470020FCE79E
:100D1000040000200500002010B540F225510948CC
:100D200000F0C6F848B100F08DF830B9054800F081
:100D30007BF9C4B2204600F05FF84021014800F082
:100D400095F810BD0048004010B586B0044601215A
:100D50000820FFF7C3FD01218804FFF7AFFD4FF422
:100D60008060ADF8140003208DF8160018208DF86F
:100D7000170005A91E48FFF725FB4FF40060ADF8EA
:100D8000140004208DF8170005A91948FFF71AFB75
:100D900001940020ADF80800ADF80A00ADF80C0091
:100DA000ADF810000C20ADF80E0001A9114800F0BC
:100DB000CFF801210F4800F062F840210D4800F003
:100DC00055F8012240F225510A4800F09BF82720EF
:100DD0008DF8000003208DF801008DF8020001203D
:100DE0008DF803006846FFF77DFC06B010BD0000DB
:100DF000000C01400048004010B5044600F022F805
:100E000020B10AA000F01CF9012010BD0B480078A9
:100E1000401C642190FBF1F201FB120007490870AD
:100E20000748097844540020EFE7000071756575A4
:100E3000652066756C6C210A000000000600002029
:100E40008400002007480078401C642190FBF1F2E8
:100E500001FB120004490978884201D10120704742
:100E60000020FCE7060000200700002001F40072CB
:100E7000B2F5007F00D100BFCA430280704721B1A4
:100E8000828942F40052828104E082894DF6FF7328
:100E90001A408281704702460020B1F5007F00D1E0
:100EA00000BF13880B400BB1012000E00020704709
:100EB00070B50246002400230025002040F66A1683
:100EC000B14200D100BFC1F3421501F01F0301265A
:100ED00006FA03F3012D02D19689334006E0022D74
:100EE00002D1168A334001E0968A33400C12012663
:100EF00006FA04F41688344013B10CB1012000E066
:100F0000002070BDF0B50346002400260025002017
:100F100040F66A17B94200D100BF1846C1F3421427
:100F200001F01F06012707FA06F5012C01D10C304C
:100F300004E0022C01D1103000E014301AB107682F
:100F40002F43076002E00768AF430760F0BD000071
:100F50002DE9F04786B005460E460024A24600BFA4
:100F6000A1460027B08900B100BF2F462C8A4CF65D
:100F7000FF700440F08804432C82AC894EF6F310D5
:100F80000440B08831890843718908430443AC8127
:100F9000AC8A4FF6FF400440B0890443AC8201A8FC
:100FA000FFF7ACFC1F48874202D1DDF810A001E03A
:100FB000DDF80CA0A88900F4004040B10AEBCA009B
:100FC00000EB0A1031684900B0FBF1F807E00AEBCA
:100FD000CA0000EB0A1031688900B0FBF1F8642008
:100FE000B8FBF0F004012009642101FB1089A889F5
:100FF00000F4004040B1322000EBC900B0FBF1F03A
:1010000000F00700044308E0322000EB09106421DF
:10101000B0FBF1F000F00F0004432C8106B0BDE8F6
:10102000F08700000038014001468888C0F30800BE
:101030007047C1F308028280704700BFFEE70000DE
:101040000FB4054B10B503A9044A029800F018F834
:1010500010BC5DF814FB00006D1200081C0000209D
:1010600002E008C8121F08C1002AFAD17047704771
:10107000002001E001C1121F002AFBD170470000CF
:101080002DE9FF4F89B09B460446002506E0252840
:101090000BD05A460B999047641C6D1C2078002891
:1010A000F5D10DB02846BDE8F08F0027B8460122E3
:1010B000474900E0074314F8013F203B02FA03F0E0
:1010C0000842F7D120782E2819D114F8010F47F0E3
:1010D00004072A280ED06FF02F022078A0F13001EB
:1010E00009290CD808EB880102EB410100EB01084B
:1010F000641CF2E70A98641C50F8048B0A9020786C
:101100000028CED0642808D0692806D075281ED0C3
:101110005A460B9990476D1C58E00A994FF00A09FE
:1011200001C90A91002802DA40422D2102E0390566
:1011300004D52B218DF82010012103E0F90704D0FC
:101140002021F7E78A4608AE0DE00021FAE70A9968
:101150004FF00A0901C90A91F7E74946FEF7E2FF95
:10116000303106F8011D0028F7D1ADEB060000F183
:101170002009780701D44FF00108C84502DDA8EB2B
:10118000090000E000208046002706E008A85A4633
:10119000C05D0B9990476D1C7F1C5745F6DB04E042
:1011A00030205A460B9990476D1CB8F10001A8F108
:1011B0000108F5DC05E016F8010B5A460B9990473B
:1011C0006D1CB9F10001A9F10109F4DC641C65E7AB
:1011D000092801000146114A12884A434FF0E023D2
:1011E0005A6100229A611A46126942F001021A619C
:1011F00000BF4FF0E022106900F001021AB100F4C4
:101200008032002AF5D04FF0E022126922F001026C
:101210004FF0E0231A6100229A617047020000201B
:101220000146114A12784A434FF0E0235A610022E6
:101230009A611A46126942F001021A6100BF4FF02A
:10124000E022106900F001021AB100F48032002A95
:10125000F5D04FF0E022126922F001024FF0E023B6
:101260001A6100229A6170470000002070B50446A0
:101270000D46E1B20548FFF7DCFE00BF4021034800
:10128000FFF709FE0128F9D1204670BD0038014062
:1012900086B000BF10A30FCBCDE90423CDE9020136
:1012A00011A103C9CDE90001FFF774F8FFF752FA65
:1012B00011E00F480068C0430E49C1F8B401C820CE
:1012C000FFF788FF0A210620FFF70AF904462146A6
:1012D00009A0FFF7B5FEECE731322F30312F31395D
:1012E0002031333A313900006E6F204750532100CE
:1012F000B4012242000022426164632076616C7571
:10130000653A202564200D0A000000002C13000817
:101310000000002020000000601000084C130008AE
:1013200020000020C8040000701000080000000029
:101330000000000000000000010203040102030499
:0C1340000607080902040608000000006F
:04000005080000ED02
:00000001FF
