:020000040800F2
:10000000F0040020010100085D070008B1050008A8
:10001000590700085B040008DF1100080000000019
:100020000000000000000000000000003D0A000881
:100030005F04000800000000CD080008510B000814
:100040001B0100081B0100081B0100081B01000820
:100050001B0100081B0100081B0100081B01000810
:100060001B0100081B0100081B0100081B01000800
:100070001B0100081B0100081B0100081B010008F0
:100080001B0100081B0100081B0100081B010008E0
:100090001B0100081B0100081B0100081B010008D0
:1000A0001B0100081B0100081B0100081B010008C0
:1000B0001B0100081B010008F10B00081B010008D0
:1000C0001B0100081B0100081B0100081B010008A0
:1000D0001B010008750D00081B010008BD0E00087B
:1000E0001B0100081B0100081B010008DFF80CD0F1
:1000F00000F018F800480047F1120008F004002052
:100100000648804706480047FEE7FEE7FEE7FEE7B1
:10011000FEE7FEE7FEE7FEE7FEE7FEE7910B0008DD
:10012000ED000008064C074D06E0E06840F00103D2
:1001300094E8070098471034AC42F6D3FFF7DAFF93
:100140000C1300082C130008002002490870024913
:1001500008707047000000200100002021B1826873
:1001600042F00102826003E0826822F001028260B4
:100170007047014600208A6802F004020AB101209B
:1001800000E0002070470146C86C80B2704702460C
:10019000002013680B400BB1012000E000207047E5
:1001A000014600208A6802F008020AB1012000E03E
:1001B0000020704730B502460020002350680F4CE5
:1001C00020400D790C6844EA052420435060906873
:1001D0000B4C2040D1E902542C434D7944EA4504AC
:1001E00020439060D06A20F470000C7C641EE4B25E
:1001F000234340EA0350D06230BD0000FFFEF0FF11
:10020000FDF7F1FF00B500F031F808B1012000BDA5
:1002100007480078401C642190FBF1F301FB1300B8
:100220000349087003480978425C1046EFE7000074
:10023000010000202400002000B5034600F024F84F
:1002400008B1012000BD07480078401C642190FBE4
:10025000F1F201FB12000349087003480978435486
:100260000020EFE700000020240000200448007870
:1002700004490978884201D1012070470020FCE739
:10028000000000200100002007480078401C642185
:1002900090FBF1F201FB120004490978884201D178
:1002A000012070470020FCE7000000200100002032
:1002B000F0B504460D4600200021092D11DDE0684F
:1002C000A5F10A0606EB4607072606FA07F188435A
:1002D000A5F10A0606EB460603FA06F10843E060BC
:1002E0000CE0206905EB4507072606FA07F188436D
:1002F00005EB450603FA06F108432061072A0FDAE9
:10030000606B561E06EB86071F2606FA07F1884328
:10031000561E06EB860605FA06F10843606322E0E6
:100320000D2A0FDA206BD61F06EB86071F2606FA6A
:1003300007F18843D61F06EB860605FA06F1084347
:10034000206310E0E06AA2F10D0606EB86071F2687
:1003500006FA07F18843A2F10D0606EB860605FAB8
:1003600006F10843E062F0BD816841F00801816058
:10037000704721B1826842F4A002826003E0826883
:1003800022F4A00282607047816841F0040181601C
:100390007047000000B587B001214FF4017000F0F4
:1003A000B3FA4FF4004000F093FA4020ADF8180083
:1003B00000208DF81B0003208DF81A0006A91848AC
:1003C00000F04EF8002001908DF808008DF809002B
:1003D0004FF4602003900020049001208DF8140059
:1003E00001A91048FFF7E6FE01210E48FFF7B6FE0F
:1003F0000C48FFF7B9FF00BF0A48FFF7D1FE0028FD
:10040000FAD10848FFF7C0FF00BF0648FFF7B1FE6A
:100410000028FAD101210348FFF7ABFF07B000BD68
:10042000000801400024014010B500F079F948208F
:1004300000F090FB4FF4E13000F0C4FC4FF4165094
:1004400000F054FD00F0B6F800F0C2F9FFF7A2FF8B
:100450005921642000F0E2FB10BD00BFFEE77047A9
:100460002DE9F0410246002500260020002300244B
:10047000002791F803C00CF00F0591F803C00CF0B1
:10048000100CBCF1000F03D091F802C04CEA050536
:1004900091F800C0BCF1000F31D0146800202BE0AF
:1004A0004FF0010C0CFA00F3B1F800C00CEA03069F
:1004B0009E4220D183004FF00F0C0CFA03F7BC438F
:1004C00005FA03FC4CEA040491F803C0BCF1280FC0
:1004D00006D14FF0010C0CFA00FCC2F814C00AE07F
:1004E00091F803C0BCF1480F05D14FF0010C0CFA94
:1004F00000FCC2F810C0401C0828D1D31460B1F829
:1005000000C0BCF1FF0F34DD546800202EE000F184
:10051000080C4FF0010808FA0CF3B1F800C00CEA1F
:1005200003069E4221D183004FF00F0C0CFA03F713
:10053000BC4305FA03FC4CEA040491F803C0BCF187
:10054000280F05D100F1080C08FA0CF8C2F8148045
:1005500091F803C0BCF1480F07D100F1080C4FF02F
:10056000010808FA0CF8C2F81080401C0828CED305
:100570005460BDE8F08101617047000010B5044689
:100580000723012221460948FFF792FE012107486F
:10059000FFF7EFFE00BF02210448FFF7F8FD002837
:1005A000F9D00248FFF7EFFD10BD00000024014024
:1005B00000BFFEE708B50121082000F0A5F94020A2
:1005C000ADF8000003208DF8020010208DF8030024
:1005D00069460848FFF744FF8020ADF800006946EF
:1005E0000448FFF73DFF0120034908600349C1F8B3
:1005F0009C0108BD000C01409881214200802142ED
:1006000010B500F009FA0120094908600949C1F84C
:100610009801052000F034FE0020054908600620FE
:1006200000F02EFE00200349C1F8980110BD000023
:100630009C8121420080214210B500F0EDF900209C
:10064000094908600949C1F89C0101200649086070
:10065000062000F015FE01200449C1F89C01062087
:1006600000F00EFE10BD0000988121420080214262
:1006700010B5002401200F49086000F001FE00F0D1
:10068000BDF901200C49C1F8980100F0F9FD07E01F
:10069000601CC4B2FA2C03DDFFF7CEFF012010BDB1
:1006A0000448803800680028F2D10249091F086018
:1006B00000BFF4E79C8121420080214270B50446CE
:1006C00000F0AAF9002014490860002520E004F099
:1006D0008000002804DD01200F49091D086003E0A7
:1006E00000200D49091D08606006040E022000F07C
:1006F000C7FD012008490860022000F0C1FD00206C
:100700000649C1F89801022000F0BAFD681CC5B284
:10071000082DDCDB70BD0000988121420080214261
:1007200008B50121102000F0EFF84FF40050ADF8AB
:10073000000010208DF8030003208DF802006946A8
:100740000448FFF78DFE4FF400510248FFF713FFF6
:1007500008BD00000010014000BFFEE77047000028
:1007600070B5002100230F22C47804B3154C24680F
:1007700004F4E064C4F5E064210AC1F10403CA4052
:10078000447804FA03F184781440214309010E4CA3
:100790000678A155047804F01F050124AC400578C3
:1007A0006D11AD0005F1E025C5F8004109E00478C0
:1007B00004F01F050124AC40044D0678761145F87D
:1007C000264070BD0CED00E000E400E080E100E0B8
:1007D00010B5642000F02EFDAE2000F052F820206D
:1007E00000F04FF8102000F04CF8B02000F049F86D
:1007F000C82000F046F8002000F043F8102000F078
:1008000040F8402000F03DF8812000F03AF8FF2049
:1008100000F037F8A12000F034F8A62000F031F8FD
:10082000A82000F02EF83F2000F02BF8A42000F0C4
:1008300028F8D32000F025F8002000F022F8D52079
:1008400000F01FF8F02000F01CF8D92000F019F893
:10085000222000F016F8DA2000F013F8122000F041
:1008600010F8DB2000F00DF8202000F00AF88D20B1
:1008700000F007F8142000F004F8AF2000F001F8B1
:1008800010BD10B504462146002000F001F810BD4F
:1008900070B505460C46FFF7B3FE7820FFF70EFF54
:1008A000FFF7E6FE00B10EE02846FFF707FFFFF76F
:1008B000DFFE00B107E02046FFF700FFFFF7D8FE9C
:1008C00000B100E000BFFFF7B7FE70BD7047000049
:1008D00001460020034A506820F44040084350601D
:1008E000704700000010024029B1064AD269024355
:1008F000044BDA6104E0034AD2698243014BDA61B6
:10090000704700000010024029B1064A9269024374
:10091000044B9A6104E0034A92698243014B9A6155
:10092000704700000010024030B500210022002472
:1009300000232D4D6D6805F00C0121B1042905D06F
:10094000082923D105E0294D056022E0274D0560E7
:100950001FE0254D6D6805F47012234D6D6805F498
:100960008034022505EB92421CB9214D55430560A8
:100970000BE01D4D6D6805F400351DB11C4D554350
:10098000056002E0194D5543056002E0174D056012
:1009900000BF00BF144D6D6805F0F0010909154D49
:1009A0006B5C0568DD4045600F4D6D6805F4E061E6
:1009B000090A104D6B5C4568DD4085600A4D6D6825
:1009C00005F46051C90A0B4D6B5C4568DD40C5609C
:1009D000054D6D6805F44041890B074D6B5CC5689A
:1009E000B5FBF3F5056130BD0010024000127A003E
:1009F00000093D000A0000201A00002008B58020F0
:100A0000ADF8000048208DF8030069460148FFF763
:100A100027FD08BD000C014008B58020ADF800009E
:100A200003208DF8020010208DF80300694602486B
:100A3000FFF716FD08BD0000000C0140704710B51F
:100A400000F002F810BD00000CB5002001900090ED
:100A50003348006840F480303149086000BF3048B6
:100A6000006800F4003000900198401C019000984C
:100A700018B90198B0F5A06FF1D12948006800F4C9
:100A8000003010B10120009001E00020009000989B
:100A9000012843D12348006840F010002149086034
:100AA0000846006820F0030008600846006840F02F
:100AB000020008601A4840681949486008464068C2
:100AC00048600846406840F48060486008464068D6
:100AD00020F47C1048600846406840F4E810486004
:100AE0000846006840F08070086000BF0C4800684D
:100AF00000F000700028F9D00948406820F0030099
:100B0000074948600846406840F00200486000BF5E
:100B10000348406800F00C000828F9D10CBD000023
:100B20000010024000200240042808D14FF0E021CC
:100B3000096941F004014FF0E022116107E04FF034
:100B4000E021096921F004014FF0E02211617047B2
:100B50007047000010B504466FF00400FFF7E4FF93
:100B6000E11704EB5171C1F3C701074A1170104638
:100B7000007800EB4001C1EBC0104FF6FF7101EAB5
:100B8000C0000249088010BD0200002004000020BF
:100B900010B51348006840F001001149086008468C
:100BA0004068104908400E494860084600680E49F0
:100BB00008400B4908600846006820F4802008605F
:100BC0000846406820F4FE0048604FF41F0088602B
:100BD000FFF735FF4FF000600449086010BD0000CA
:100BE000001002400000FFF8FFFFF6FE08ED00E0F5
:100BF00010B50121084800F050F838B10620FFF781
:100C0000BDFCC0F307142046FFF716FB0121024884
:100C100000F034F810BD0000000800407FB5054624
:100C20000C4601210420FFF75FFEADF80850ADF837
:100C300004400020ADF80A00ADF8060001A90E48F6
:100C400000F046F8012211460B4800F037F8012168
:100C5000094800F013F81E208DF8000002208DF8DE
:100C6000010003208DF8020001208DF80300684682
:100C7000FFF776FD7FBD000000080040CA430282F6
:100C8000704721B1028842F00102028004E002882C
:100C90004FF6FE731A400280704730B502460020BE
:100CA00000230024158A05EA0103958905EA010459
:100CB00013B10CB1012000E0002030BD1AB18389CE
:100CC0000B43838102E083898B438381704700005B
:100CD000002202881D4B98420ED01D4B98420BD02B
:100CE000B0F1804F08D01B4B984205D01A4B984268
:100CF00002D01A4B984204D14FF68F731A404B889A
:100D00001A43174B984207D0164B984204D04FF61F
:100D1000FF431A40CB881A4302808B8883850B8857
:100D200003850A4B98420BD0094B984208D00E4BD2
:100D3000984205D00D4B984202D00D4B984201D1FC
:100D40000B7A03860123838270470000002C014048
:100D5000003401400004004000080040000C004046
:100D600000100040001400400040014000440140D9
:100D70000048014010B540F22551104800F06AF9D2
:100D8000B0B100F077F898B90C4800F01FFAA92824
:100D900005D1FFF7D9F901210948FFF772FF07488C
:100DA00000F014FAB92803D100210548FFF769FFC4
:100DB0004021024800F02CF910BD0000003801402D
:100DC0000008004010B586B0044601210420FFF75A
:100DD0009BFD01218803FFF797FD4FF40070ADF8EC
:100DE000140003208DF8160018208DF8170005A9AF
:100DF0001E48FFF735FB4FF48060ADF81400042067
:100E00008DF8170005A91948FFF72AFB0194002067
:100E1000ADF80800ADF80A00ADF80C00ADF8100010
:100E20000C20ADF80E0001A9114800F063F9012172
:100E30000F4800F0F6F840210D4800F0E9F80122D3
:100E400040F225510A4800F02FF925208DF80000C6
:100E500003208DF801008DF8020001208DF80300B9
:100E60006846FFF77DFC06B010BD00000008014099
:100E70000038014007480078401C642190FBF1F2E3
:100E800001FB120004490978884201D10120704712
:100E90000020FCE7080000200900002010B50446EF
:100EA0002146054800F097F900BF4021024800F0B4
:100EB000C4F80128F9D110BD0038014010B540F246
:100EC0002551094800F0C6F848B100F08DF830B956
:100ED000054800F07BF9C4B2204600F05FF84021DD
:100EE000014800F095F810BD0048004010B586B0EC
:100EF000044601210820FFF707FD01218804FFF7C0
:100F0000F3FC4FF48060ADF8140003208DF8160058
:100F100018208DF8170005A91E48FFF7A1FA4FF415
:100F20000060ADF8140004208DF8170005A91948D9
:100F3000FFF796FA01940020ADF80800ADF80A001A
:100F4000ADF80C00ADF810000C20ADF80E0001A9B2
:100F5000114800F0CFF801210F4800F062F840215D
:100F60000D4800F055F8012240F225510A4800F0E2
:100F70009BF827208DF8000003208DF801008DF8E4
:100F8000020001208DF803006846FFF7E9FB06B078
:100F900010BD0000000C01400048004010B50446A0
:100FA00000F022F820B10AA000F01CF9012010BDC9
:100FB0000B480078401C642190FBF1F201FB120009
:100FC000074908700748097844540020EFE70000FB
:100FD00071756575652066756C6C210A00000000EE
:100FE000060000208800002007480078401C64218B
:100FF00090FBF1F201FB120004490978884201D10B
:10100000012070470020FCE70600002007000020B8
:1010100001F40072B2F5007F00D100BFCA43028024
:10102000704721B1828942F40052828104E08289B2
:101030004DF6FF731A408281704702460020B1F5D9
:10104000007F00D100BF13880B400BB1012000E0EE
:101050000020704770B502460024002300250020C0
:1010600040F66A16B14200D100BFC1F3421501F04B
:101070001F03012606FA03F3012D02D1968933409E
:1010800006E0022D02D1168A334001E0968A3340F1
:101090000C12012606FA04F41688344013B10CB180
:1010A000012000E0002070BDF0B5034600240026BA
:1010B0000025002040F66A17B94200D100BF18464B
:1010C000C1F3421401F01F06012707FA06F5012CAF
:1010D00001D10C3004E0022C01D1103000E01430BA
:1010E0001AB107682F43076002E00768AF43076043
:1010F000F0BD00002DE9F04786B005460E460024FD
:10110000A24600BFA1460027B08900B100BF2F460C
:101110002C8A4CF6FF700440F08804432C82AC8982
:101120004EF6F3100440B0883189084371890843B2
:101130000443AC81AC8A4FF6FF400440B0890443BD
:10114000AC8201A8FFF7F0FB1F48874202D1DDF80F
:1011500010A001E0DDF80CA0A88900F4004040B127
:101160000AEBCA0000EB0A1031684900B0FBF1F845
:1011700007E00AEBCA0000EB0A1031688900B0FBF7
:10118000F1F86420B8FBF0F004012009642101FBB0
:101190001089A88900F4004040B1322000EBC9005A
:1011A000B0FBF1F000F00700044308E0322000EB50
:1011B00009106421B0FBF1F000F00F0004432C8112
:1011C00006B0BDE8F087000000380140014688887D
:1011D000C0F308007047C1F308028280704700BF67
:1011E000FEE70000014A024900F013B8CD120008E2
:1011F0002000002002E008C8121F08C1002AFAD10E
:1012000070477047002001E001C1121F002AFBD186
:1012100070472DE9F04116460F460446002503E0CD
:101220003946B047641C6D1C20780028F8D1284648
:10123000BDE8F0810146114A12884A434FF0E0238D
:101240005A6100229A611A46126942F001021A613B
:1012500000BF4FF0E022106900F001021AB100F463
:101260008032002AF5D04FF0E022126922F001020C
:101270004FF0E0231A6100229A61704704000020B9
:101280000146114A12784A434FF0E0235A61002286
:101290009A611A46126942F001021A6100BF4FF0CA
:1012A000E022106900F001021AB100F48032002A35
:1012B000F5D04FF0E022126922F001024FF0E02356
:1012C0001A6100229A6170470200002070B504463E
:1012D0000D46E1B20548FFF77EFF00BF40210348FD
:1012E000FFF7ABFE0128F9D1204670BD0038014060
:1012F000FFF79AF809E004E0FEF784FF0446FFF7E1
:10130000CDFDFEF7B3FF0028F6D0F4E72C1300085C
:101310000000002024000000F41100085013000811
:1013200024000020CC04000004120008000000008B
:1013300000000000000000000000010203040102A0
:101340000304060708090204060800000000000064
:04000005080000ED02
:00000001FF
